S01500006672646D6B3634665F626F6F742E7372656318
S21400000000000320D90400001105000011050000BF
S2140000101105000011050000110500000000000099
S21400002000000000000000000000000011050000B5
S2140000301105000000000000110500001105000079
S2140000401105000011050000110500001105000053
S2140000501105000011050000110500001105000043
S2140000601105000011050000110500001105000033
S2140000701105000011050000110500001105000023
S2140003F0110500001105000011050000FFFFFFFFBA
S214000400FFFFFFFFFFFFFFFFFFFFFFFFFEFFFFFFF8
S21400041010B5054C237833B9044B13B10448AFF339
S21400042000800123237010BDC40AFF1F00000000D7
S2140004308C90000008B5064B1BB106480649AFF382
S21400044000800648036813B1054B03B1984708BD02
S214000450000000008C900000C80AFF1FC00AFF1FA3
S21400046000000000154B002B08BF134B9D46A3F55C
S214000470803A00218B460F461348144A121A07F09A
S21400048013FD0F4B002B00D098470E4B002B00D0CF
S21400049098470020002104000D000D48002802D0D7
S2140004A00C4807F0CDFD07F0D7FC2000290007F028
S2140004B0B5FC07F0C1FC00BF0000080000000320E8
S2140004C00000000000000000C40AFF1F7C72FF1F2F
S2140004D0418000004D80000072B60A480A490B4A67
S2140004E04FF008033BB140F8042B41F8042BA3F16E
S2140004F00103FFF7F7BF00F015F800F0C3F862B687
S214000500FFF7B0FF80E100E080E200E0FFFFFFFFC2
S214000510FFF7FEBF80F310887047EFF3108072B6C7
S214000520704700004E4BD3F8882042F47002C3F8A0
S21400053088204C4B4CF22052DA814DF62812DA8194
S2140005404FF4E9721A8003F534331B7813F0010F69
S2140005500AD0454B9B7813F0080F20D0424B9A7870
S21400056042F008029A701AE0404A41F23C03D15821
S21400057041F00051D1503E4B1B6913F4807F0ED1E1
S2140005803B4B1A6922F47C5242F440721A611A6993
S21400059042F480721A611A6922F400721A612A22E1
S2140005A0344B1A70A3F55C334FF08A7141F2440263
S2140005B099501A6822F4402242F400221A6041F24E
S2140005C00402995821F4403141F48031995041F2A7
S2140005D03802995841F400719950274A936C23F0D9
S2140005E0807323F4E0639364244B00221A725978D4
S2140005F001F09F0141F020015970802020490870C9
S2140006001A73BA221A701A46937913F0100FFBD198
S2140006101A4BDA7802F01F02DA7013221A711822C7
S2140006205A715A7942F040025A711A46937913F079
S214000630400FFBD0114B1A7802F03F021A701A4690
S214000640937903F00C030C2BFAD1084A41F24803C5
S214000650D15821F00F0141F00901D150704700BF79
S21400066000ED00E00020054000D007400070044088
S21400067000D0034000E007400090044000400640E1
S2140006800050064030B41848184B194A9A420FD00A
S214000690800809D000231A46154D144C1959595193
S2140006A0013204338242F9D1124B114A9A6002E0B9
S2140006B0104B0E4A9A601048104BC01A08D05A1EAB
S2140006C00F4B184412F8011F03F8011B8342F9D19F
S2140006D00C490D4BC91A05D01944002203F8012B0A
S2140006E08B42FBD130BC70470004000000000000C5
S2140006F00000FF1F00ED00E07C970000B8900000AF
S2140007000004FF1F7C72FF1FC40AFF1F08B502F01B
S21400071039F808BD2DE9F84300F1F0070546044610
S21400072042F6E0684FF01809A3686BB103F02EF8A4
S214000730E368C01A404507D9206908B101F086FC75
S2140007402846494602F0B8FE18341835BD42EBD1AB
S214000750BDE8F8832DE9F04F83B0884601924669DC
S214000760706A88420BD006F11C052B4601243146E0
S2140007700F469A1B2A445268424512D100E00024D4
S21400078006F11C036500281903EBC0000199062238
S21400079002F02EFE02F0FAFF254406EBC505A8621D
S2140007A054E0013418330A2CE2D158B32B46012406
S2140007B0DA1B2A44526822B1013418330A2CF7D1C6
S2140007C001E00A2C1FD1AA46002300931C46994636
S2140007D002F0DCFFC7EB0A0BAB445BF8103CC01A18
S2140007E0009B984206D902F0D1FF5BF8103CC31A72
S2140007F000934C4609F101090AF1180AB9F10A0FEB
S214000800E6D100E0002404EB440306EBC303D86AF9
S21400081040B101F01BFC04EB440206EBC2020023CD
S214000820D362136363001A1906EBC20202F12405B1
S214000830C2F8248006F11C02234402EBC30001998F
S214000840062202F0D5FD02F0A1FF686006F11C004A
S21400085004EB440400EBC40003B0BDE8F08F00BF17
S2140008602DE9F8438046476907F11C0900244E46E7
S21400087018253019294602F01FFE1834F02CF8D13E
S21400088040F6B8300B494A4602F0A8FFC7F80C01FC
S21400089058B10948414601F099F9C7F81001B0F17E
S2140008A0FF3F0CBFFF20002000E0FF2040B2BDE865
S2140008B0F88300BF150700000D07000010B5446957
S2140008C0D4F80C0102F0A4FF0023C4F80C3110BDCC
S2140008D038B54469636A8B4209D004F11C052A4680
S2140008E00123101B2844406888420FD100E00023F3
S2140008F01C3403EB430304EBC304204607490622DB
S21400090002F0E2FD002808BF002404E0013318329C
S2140009100A2BE6D10024204638BD00BF48810000DF
S2140009202DE9F04784B0044601914669CD68002958
S21400093000F0A28049691B2940F29E802B88B3F5FF
S214000940807F40F099802B79062B40F095806B884D
S214000950082B40F091806B79042B40F08D801C2989
S21400096004D901A8C1F11C0101F00EFB204602A922
S214000970062201F013FE05F10807384602A90622F2
S21400098002F0A2FD002877D038463E49062202F043
S2140009909BFD002870D0D5F80E10D5F81890636A25
S2140009A08B423FD0994505D120463A46FFF7D2FE06
S2140009B0064628E0D4F81480D8F8243099420AD0A5
S2140009C008F11C0002460123C8EB020606447668BE
S2140009D0B14213D100E0002308F11C064FF0180ABC
S2140009E00AFB03FA564430463946062202F000FD5A
S2140009F002F0CCFED044C8F8280004E001331832D8
S214000A000A2BE1D100268EB133697BB16269D2F838
S214000A1008C020464FF400613246E04700233361A9
S214000A20736103E0D6F8100101F03EF9EB88B3F5E8
S214000A30807F21D1636A4B451ED10023AB71022310
S214000A40EB7105F1120630463946062202F0D0FC5C
S214000A50384602A9062202F0CBFCD5F80E30AB6170
S214000A60636AC5F80E3063699D68204640F6060145
S214000A703246019BA84702E0019801F0E7FA04B06D
S214000A80BDE8F087308100002DE9F04182B00546D0
S214000A9088461C20012101F00FFB074658B3C468A6
S214000AA000222270012363700821A170E2700626DE
S214000AB0267104216171A271E371284669463246A7
S214000AC001F06CFD04F112000C49324602F090FC75
S214000AD004F108006946324602F08AFCC4F8188021
S214000AE06B6AC4F80E306B699C68284640F60601AF
S214000AF0034A3B46A04702B0BDE8F08148810000AB
S214000B00308100002DE9F04107460E4690464269C6
S214000B10536A8B4217D002F11C010B4601249D1A22
S214000B200D446D68B54204D0013418330A2CF6D152
S214000B3001E00A2C08D138463146174AFFF70AFE6C
S214000B4005460A2405E000241C3204EB440502EBAB
S214000B50C505286908B101F079FA0A2C0DD02B6971
S214000B605BB102F013FE6B69C01A642202FB00F34D
S214000B70B3F57A7F01D82B6953B902F007FE686196
S214000B80C5F8108038463146FFF77EFFBDE8F08195
S214000B90C5F81080BDE8F081488100002DE9F843D3
S214000BA0D0F8149001F05AF809F11C0846460025C2
S214000BB02F46C9EB0604444454F80C0C28B101F047
S214000BC045FA44F80C7C44F8087C013518360A2DA2
S214000BD0EFD101F04BF8BDE8F88300BFF0B40E4645
S214000BE0B1F120072DD413467E0902F1200505EB4E
S214000BF046155C88198821449C882144DC88214459
S214000C001C8921445C8921449C892144DC89214437
S214000C101C8A21445C8A21449C8A2144DC8A214423
S214000C201C8B21445C8B21449C8B2144DC8B21440F
S214000C3008442033AB42DCD1731C02EB4312A7EB13
S214000C404616B6F1080715D41346FE0802F1080545
S214000C5005EBC6055C88198821449C882144DC88FD
S214000C60214408440833AB42F4D1731C02EBC302A0
S214000C70A7EBC606B51E0DD42B46114631F8024B1F
S214000C802044023BFAD5023E7608731C02EB430270
S214000C90A5EB46060EB113781844F0BC704700BFAB
S214000CA02DE9F04780460C46C76805698D4228BF87
S214000CB00D460026B1464FF0FF3A1DE0641B304655
S214000CC029463A46FFF78AFF0646BCB1D8F80080A8
S214000CD0D8F80C7015F0010F07D017F8010B05F0C7
S214000CE065FC0644013C554600E04D46D8F81030F9
S214000CF0A34294BFED182546002CDFD13046BDE850
S214000D00F08700BF08B5FFF7CBFF00F57F40FF3048
S214000D10030C03D013FA80F0030CFBD1C04380B25F
S214000D2008BD00BF70B50E4614461146FFF7B8FF63
S214000D300546204605F03AFC06F57F41FF3129447A
S214000D400844030C03D013FA80F0030CFBD180B2E6
S214000D5070BD00BF70B50E4615461C461946324695
S214000D60FFF73CFF21462A46FFF738FF00F57F4095
S214000D70FF30030C03D013FA80F0030CFBD1C04302
S214000D8080B270BD014B93F900007047E00AFF1F68
S214000D90014B1870704700BFE00AFF1F20B584B0F3
S214000DA00D4669B10278437881780091C178019147
S214000DB001790291417903912846034904F062F9CA
S214000DC0284604B020BD00BF508100002DE9F00386
S214000DD086B06F464FF000084FF0610C4FF04109A7
S214000DE0444618E0A3F13005EDB2092D03D803EB15
S214000DF00414303C0FE0A3F16105EDB2052D3ED999
S214000E00A3F14105EDB2052D36D9134620460BE079
S214000E1023440A339C1A064610F8012B02F0FF03FF
S214000E20002ADFD1134620465BB23A2B06D147F89C
S214000E30040B701C06AB9F42D2D314E022F02003B2
S214000E405BB293B947F8044B06ABFF1A032F0ED8D4
S214000E50ADF10403013905A853F8042F01F8012F5A
S214000E608342F9D105E0FF2004E0FF2002E0FF20E6
S214000E7000E0002040B205E024014A46C8E724010D
S214000E806246C5E706B0BDE8F003704708B50346FE
S214000E9098B191B1B2F5C16F04D0082A08BF0122FB
S214000EA001D007E00022054800EBC202526818464F
S214000EB0904708BD084601F0C9F808BD3881000013
S214000EC070B50446FFF7CCFC054678B9666920463F
S214000ED001F046FC3075666928200549224602F076
S214000EE07DFCB061034B1A6801321A60284670BD5B
S214000EF02D0F0000E40AFF1F10B5044643699869E9
S214000F0002F086FC2046FFF7D9FC024B1A68013A2D
S214000F101A6010BDE40AFF1F08B5FFF73FFE08BDC4
S214000F2008B5416A09B1FFF7AFFD08BD38B50446FC
S214000F3043691D7D01F014FCA8420AD035B920464D
S214000F40FFF7EEFF636901221A7538BD6369002258
S214000F501A7538BD70B582B004460D46164608466A
S214000F60214600F02DFB28B168462049062202F0F3
S214000F703FFA30E005F0F003E02B1BD101238DF89B
S214000F80003000238DF801305E238DF802302846AD
S214000F9005F012FBC0F306408DF80300284605F066
S214000FA00BFB000A8DF80400284605F005FB8DF8BB
S214000FB0050010E020462946FFF78AFC014620B1CE
S214000FC06846062202F014FA05E020462946324614
S214000FD0FFF798FD07E063699D6820464FF40061BF
S214000FE06A463346A84702B070BD00BF3081000095
S214000FF000B585B0019101238DF8083000238DF8E7
S21400100009305E238DF80A30C1F306238DF80B30C5
S214001010C1F307438DF80C30090E8DF80D104369A7
S2140010201B6902A9984705B05DF804FB00B585B0BA
S214001030019101238DF8083000238DF809305E23D6
S2140010408DF80A30C1F306238DF80B30C1F3074341
S2140010508DF80C30090E8DF80D104369DB6802A977
S214001060984705B05DF804FB2DE9F04387B081464C
S214001070884617461D46DE680024B470F47018468D
S2140010805969FFF73FFE7080009440230193029554
S214001090039404940594484641463A46012300F0DA
S2140010A0D7FA07B0BDE8F083F0B589B005460C4620
S2140010B00192516923292AD9242904D901A8C1F10A
S2140010C0240100F061FF01A8019B596901F0E4F8D2
S2140010D0B0F1FF3F1BD0019BDE6801200021727C2F
S2140010E001F0AEFB074690B1836983B1284606F14E
S2140010F0080102AA05AB00F0F3F901A81C2100F0D4
S21400110043FFBD69204602A905AA019BA84701988E
S21400111000F09CFF09B0F0BDF0B583B004460E4663
S21400112015460193089800F091FF002C79D0019B9A
S214001130002B76D001A8042101F0AEF8B0F1FF3FF5
S2140011406FD0019BDF68B668AD6818465969FFF72F
S214001150D9FD002865D13046214600F031FA002836
S2140011605FD106F0F003E02B5BD03B78033B092B06
S21400117057D8DFE803F01C4E5656560556563845E7
S214001180019B5B69072B4CD92846214600F018FACC
S214001190002846D105F0F003E02B42D000233B7038
S2140011A0204629463246019BFFF75EFF3CE07B78EF
S2140011B00C2B36D8DFE803F00711090B0F0D0711CB
S2140011C0110711071100062108E0032106E004219B
S2140011D004E0052102E0012100E002212046019AF8
S2140011E0FFF762FF20E07B7813B1012B02D018E0F6
S2140011F0072100E008212046019AFFF755FF13E07B
S2140012007B78012B0DD820460921019AFFF74CFF69
S2140012100AE07B782BB920460021019AFFF744FFAD
S21400122002E0019800F012FF03B0F0BD2DE9F04F88
S21400123083B006460F4690460193002B71D0DC68BB
S214001240E568D4F81090E38823F0E0039BB2002B07
S21400125064D1637A012B0ED1237803F00F0314F8C0
S2140012602330A3F10802D2B2022A04D91BB10D3BE7
S214001270DBB2052B52D82846314600F0A1F90028EB
S2140012804CD105F0E003E02B48D04846314600F04C
S21400129097F9002842D109F0F003E02B3ED0019BDD
S2140012A09B6913F0060F39D10820002100F004FFD7
S2140012B0834698B3D0F80CA000238AF804308AF846
S2140012C005308AF806308AF807300C2F06D14046DB
S2140012D005F06CF9AAF804004FF000088AF80070D0
S2140012E08AF80180237803F00F039B00019A526965
S2140012F003F10801914205D2C2F1080101A8194480
S21400130000F042FE5846019900F0EEFD03460190BB
S214001310304649462A46FFF7A7FE02E0019800F04D
S21400132095FE03B0BDE8F08F30B589B00D46144683
S21400133003784278009282780192C278029204A8DA
S2140013401021094A03F0BCFE40B1A04208D228464C
S21400135004A9224602F004F9284602E0002000E034
S214001360002009B030BD00BF708100002DE9F043B9
S21400137083B0002402AA02F8044D26462746A44657
S2140013804FF001081FE0A3F13005EDB2092D11D88A
S21400139015785BB2303B05EB850903EB490304B1D6
S2140013A0F5B1FF2B1ED813706CB90136042E1BD86E
S2140013B0444608E05BB22E2B18D1CCB1042E19D0CF
S2140013C057700132644610F8013B002BDBD1032E28
S2140013D012D9084601A9042202F00AF800200CE0FF
S2140013E0FF200AE0FF2008E0FF2006E0FF2004E0E0
S2140013F0FF2002E0FF2000E0FF2040B203B0BDE87F
S214001400F08300BF00B583B002AB43F8040D184666
S2140014101022FFF789FF03B05DF804FB08B5FFF75D
S214001420A5FF08BD08B5012805D1084611461A468D
S214001430FFF77AFF08BD002008BD00BF38B5054697
S2140014400C460831FFF792FF88B90123238028460F
S214001450252102F099F828B1013000210A2202F075
S214001460C1F800E0002060600020608000E0FF20FF
S21400147040B238BD08B508483C2102F01DF80748C0
S214001480002100F0A3FB064B1860B0F1FF3F14BF2D
S21400149000206FF0000008BD884DFF1F011A0000F5
S2140014A0F40AFF1F10B5044601F04AF80B4B1B6800
S2140014B09BB15A6A84EA02015A6B114206D109E0CE
S2140014C05A6A84EA02015A6B114205D01B68002B47
S2140014D0F6D110BD184610BD184610BDC44DFF1FEE
S2140014E02DE9F04107460E4615461C4610460C21CF
S2140014F001F0E2FF4FF00108A5F80080FB696B6081
S214001500F368AB6020460C2101F0D6FFA4F80080FB
S214001510FB6963603369A360BDE8F08110B500F035
S2140015209DFB084B196831B11C46204600F0A2FD11
S21400153021680029F9D10022024B5A6000F096FB80
S21400154010BD00BFE80AFF1F08B5FFF7E7FF08BD9C
S21400155070B5134CA4F10803002632469D686DB1A1
S21400156054F8085C85420AD154F8045C8D4206D1D2
S21400157002EB42020B4B03EB820605E01E460132ED
S2140015800C340C33052AE9D146B1B3680133B36095
S214001590012B03D17160306001F0D2F8304670BD87
S2140015A0904DFF1F884DFF1F08B5034638B182686F
S2140015B0013A82601AB90068596801F0C9F808BD96
S2140015C0431E13F1030F2BD86FF4AB73984229D048
S2140015D0D1B91E4B1B683BB39A6B824226D0DA6B9E
S2140015E0824225D01A6B824209D123E09A6B82424E
S2140015F022D0DA6B824221D01A6B824220D01B683E
S214001600002BF3D1002070478B6B83421AD0CB6B34
S214001610834219D00B6B984214BF002001207047FC
S2140016200120704701207047002070470120704756
S2140016300120704701207047012070470120704745
S214001640012070470120704701207047C44DFF1FDE
S2140016502DE9F04383B0019100921F460C9C06468C
S21400166030B91046FFF71EFF0646002800F08180BE
S214001670019A0AB9736A019362691432B2F5205F5F
S21400168079D81420012100F017FD8046002874D078
S2140016900F9B3BB1188801A96A460423FFF75AFB43
S2140016A00F9B1880D8F80C502B7803F00F0343F0EC
S2140016B040032B70364B1888421C1A8004F076FFC5
S2140016C0A8809DF828306B70636914331FFA83F97D
S2140016D02B7823F00F0343F005032B709DF834306E
S2140016E013B9AB71EB7103E04023AB710023EB71D0
S2140016F09DF82C302B726F72019BEB60009B2B6168
S214001700484604F053FF68804046214600F0ECFB54
S21400171004463369994532D8009FC5680023AB72EA
S214001720EB72297801F00F018900FFF7EBFA688168
S21400173038463146FFF744FF98B907F0F003E02B30
S2140017400FD09DF8383063B9736A87EA0302736B6B
S2140017501A4206D04FF6A96307EA03029A4218BF58
S214001760376CB3691B6930463946224698470020D5
S2140017700AE0F02504E0F82502E0FD2500E0F82563
S214001780204600F063FC284640B203B0BDE8F08374
S214001790F00AFF1FF8B504461646069D1F46002BA6
S2140017A05DD0002D5DD000295DD14069838813F09F
S2140017B0010F5AD0A2F1140104294ED8DFE801F037
S2140017C003090F1A1A00032D5CD93B6884F86D30A4
S2140017D076E0032D58D93B6884F86C3070E0032D12
S2140017E054D9002854D08379022B53D13B6884F80F
S2140017F06E3065E0786810B900F0A2FE01E000F0F7
S214001800D5FF082D48D1002848D0396801F0F003EC
S214001810E02B45D16369002B44D09B79022B43D142
S214001820E36F5BB31D68A84228D15A68914225D160
S21400183004F17C02172E09D1C2BBCBBB14F17C0F7E
S21400184038D0FFF785FEE067D0BB35E0B2B3E06F77
S214001850FFF7AAFE0023E36732E0F72006E0FA204F
S21400186004E0FA2002E0FA2000E0FA2084F86F0094
S21400187040B2FFF78DFAFF2040B2F8BD172EDCD03D
S214001880FA20F3E7FA20F1E7FA20EFE7FA20EDE78F
S214001890FA20EBE7FA20E9E7FA20E7E7FA20E5E79F
S2140018A0FA20E3E7FA20E1E7FA20DFE7F220DDE7B7
S2140018B0F220DBE7F220D9E7F220D7E7FA20D5E7D7
S2140018C00020D9E770B5049C1E4633B33CB32568A8
S2140018D03DB341BB4169898811F0010F25D0152A17
S2140018E00BD0162A11D0142A21D1032D21D990F815
S2140018F06D3033600423236028E0032D1BD990F855
S2140019006C3033600423236020E0032D15D990F853
S2140019106E3033600423236018E0FA230EE0FA23C7
S2140019200CE0FA230AE0FA2308E0FA2306E0F7239D
S21400193004E0FA2302E0FA2300E0FA2380F86F308E
S21400194058B2FFF725FAFF2040B270BD0020FBE733
S21400195070B504460E46154600F080F962686B695D
S2140019601344B3F5A05F14D80420002100F0A4FBB4
S21400197078B1C66061686A690A446260294600F008
S214001980B3FA0146204600F0C9FA00F06FF90020CD
S21400199002E000F06BF9FF2040B270BD10B50C46B7
S2140019A0014668B164B107482246FFF7D1FF18B177
S2140019B0204600F04BFB10BD034B186800F074F98E
S2140019C010BD00BFE80AFF1FF40AFF1F70B50546EA
S2140019D0046894B12668E3680B6000F03FF91EB116
S2140019E06A687369D31A6B60002323602846214611
S2140019F000F040FB00F03AF900E00026304670BDEB
S214001A002DE9F0478AB000F029F94D4E002789E00D
S214001A10476008A8142100F03FFCB0F1FF3F03D157
S214001A20089800F013FB7DE0089BDC68D4F8108073
S214001A30608804F0BBFD05462178089843699D42FE
S214001A406DD8132B6BD90B09042B68D101F00F014D
S214001A504FEA8109B9F1130F61D94946FFF752F9E8
S214001A6000285CD1DDF824A0DAF8243043450ED0F7
S214001A7040465146FFF7A4FD48B908F0F008B8F113
S214001A80E00F04D0DAF818301B78022B47D1089BF9
S214001A9059698D4203D208A8691A00F075FAE388DE
S214001AA033F0400203D0089800F0D0FA3AE00898E5
S214001AB04369B3F5205F02D900F0C8FA32E0394630
S214001AC009F108023B4600F045FB054608A84946D2
S214001AD000F05AFA0998214605AA02ABFFF700FD66
S214001AE00095099805A902AA089B00F0B7FF0120F7
S214001AF03946627A00F0A4FE38B100954469099828
S214001B0005A902AA089BA0470CE0089800F09EFAD8
S214001B100998032102222B46FFF788FB02E008986B
S214001B2000F094FA304609A9FFF750FF0890002805
S214001B307FF46EAF00F09AF80AB0BDE8F08700BFF9
S214001B40E80AFF1F10B50F4B1C68D4B163688342C8
S214001B5014D102E06368834210D1A3680BB16069B8
S214001B609847094B1B6813B10123237410BD00234B
S214001B702374E3682BB16069984710BD2468002C75
S214001B80E8D110BDFC0AFF1FF80AFF1F2DE9F0413F
S214001B900546884617461E46182000F0FDFB70B125
S214001BA04560C0F80880C760074A13680360069B54
S214001BB0436110602846314604F018F800E0FF2024
S214001BC040B2BDE8F08100BFFC0AFF1F70B50646B4
S214001BD00D460B4B1C68621C1A60182000F0DCFBDC
S214001BE050B1446000228260C660064A11680160F7
S214001BF045611060204670BD4FF0FF3070BD00BFDD
S214001C002404FF1FFC0AFF1F10B50446124B186879
S214001C1008B34268A24203D115E04268A24212D03D
S214001C2000680028F9D110BD12680B4B1A6010BD71
S214001C305968A14202D11B68136010BD1A4613688A
S214001C40002BF5D110BD00F093FB034B1A685368C8
S214001C50A342F4D1E8E710BDFC0AFF1F024B1A6846
S214001C6001321A60704700BFF80AFF1F38B50C4BE8
S214001C701B68012B0ED10B4B1C685CB10025237C26
S214001C80012B04D12574E3680BB16069984724687A
S214001C90002CF4D1024B1A68013A1A6038BD00BF16
S214001CA0F80AFF1FFC0AFF1F38B50546114B1C68D3
S214001CB0FFF7D4FFDCB16368AB4215D102E063687E
S214001CC0AB4211D1A3680BB1606998470A4B1B68F9
S214001CD0012B06D100232374E36843B1606998475B
S214001CE005E00123237402E02468002CE7D1FFF707
S214001CF0BDFF38BDFC0AFF1FF80AFF1F0023024A7B
S214001D001360024A13607047F80AFF1FFC0AFF1FA1
S214001D10062A98BF0722034698B102F108008842B7
S214001D200ED203F10900104420EA020001325A6084
S214001D301944091AB1FBF2F202604060186000E034
S214001D4000231846704700BF00230360704700BF9B
S214001D5070B505460C46002934D0FFF77FFF68684B
S214001D60211A0A462B6802E0A24205D32346934274
S214001D7023D25C68A2421CD2166800FB06105C6880
S214001D80A04206D1006806440E6058684068486065
S214001D9000E04C601C68686800FB0430884201BFA5
S214001DA00268A4181C6042685A602B60FFF75EFF4A
S214001DB070BDA342E0D22346D9E75C68A342D3D2E3
S214001DC02346D4E770BD00BF2DE9F04180460C469F
S214001DD0FFF744FFD8F804305D1E2544B5FBF3F545
S214001DE00135D8F8004063682046264600211A6868
S214001DF0954208D829B10F68BA421FD23046194614
S214001E0001E030461946A34202D01E465B68EEE764
S214001E1091B10B68AB4202D14B68436006E05B1B96
S214001E200B60D8F8042002FB03110D60C8F8000010
S214001E30D8F804400C4404E0002402E0A342E4D1B5
S214001E40E7E7FFF713FF2046BDE8F08138B5054603
S214001E50FFF704FF296849B10C684B68994206D021
S214001E601A6814445B689942FAD100E00024FFF730
S214001E70FDFE686800FB04F038BD00BF2DE9F041A8
S214001E8005469846164662B30446002227693A4439
S214001E902468002CFAD1B6F1FF3F01D1561A04E0AF
S214001EA0731893421DD891421BD82B69994206D3CA
S214001EB02D682A6913449942FAD21144C91A002798
S214001EC02C69641AB44228BF3446361BEB68404679
S214001ED01944224601F08CFAA0442D680EB139460A
S214001EE0EEE7BDE8F08100BF10B4044680B189B1CA
S214001EF0024613680BB11A46FBE71160A2698B69AC
S214001F001343A36163694A6913446361204601E091
S214001F100846FFE75DF8044B704700BF02680AB941
S214001F200160704753680BB11A46FBE75160704773
S214001F3008B50722FFF7ECFE034B1860D0F101004E
S214001F4038BF0020404208BD000BFF1F08B5014601
S214001F50024B1868FFF7FCFE08BD00BF000BFF1F12
S214001F6038B5044670B180680368012B02D1FFF7CC
S214001F70EDFF01E0013B036025682046FFF7E6FF22
S214001F80284638BD002038BD2DE9F84F06460F46D6
S214001F90002959D0D0F80080D8F814A081EAE17B57
S214001FA0ABEBE17BDA454FD3B8F1000F4CD0D8F855
S214001FB01050002906DC0AEB0102AA42D8BF4446AC
S214001FC037DD0FE089468D4226D8444623683360C5
S214001FD02046FFF7C5FF0446D8B103691D444D45AA
S214001FE0F4D91AE0444624689CB123691D449542FE
S214001FF0F9DB1EE0FFF7B4FF20600028FAD1236962
S21400200003BB2046FFF7ACFF044610B1CBEB0A0338
S21400201063613460BDE8F88F444623693B445A1B2D
S214002020E3681344E360ED1B2561D8F81830A3611C
S214002030ECE7236953441F447D1B25612068002874
S214002040D8D1DCE74446E1E7BDE8F88F38B504466A
S21400205078B12568A0680368012B02D1FFF776FFE8
S21400206001E0013B03602046FFF770FF0DB12C46F0
S214002070EFE738BD70B5054698B104688CB18C4260
S21400208005D166682046FFF7E1FF2E6070BD6068E8
S214002090884202D00CB10446F9E74568FFF7D6FF40
S2140020A0656070BD08B50146024B1868FFF78CFEE8
S2140020B008BD00BF000BFF1FF8B505460F461C20E5
S2140020C0FFF7F0FF044640B93FB300F0D7FB1C20F3
S2140020D0FFF7E8FF044620BB21E02E1D3046FFF741
S2140020E0E1FF034660B937B100F0C8FB3046FFF7A2
S2140020F0D9FF034620B92046FFF728FF0020F8BD89
S21400210000222260626001211960A3600433E3604C
S21400211025616561A2612046F8BD0020F8BD00205B
S214002120F8BD2E1D3046FFF7BDFF03460028E7D159
S214002130DAE700BF70B506460D4608461146FFF7BB
S214002140BBFF044620B1C06831462A4601F050F96C
S214002150204670BD2DE9F04704460E469146984647
S21400216000230269134400680028FAD1B9F1FF3F42
S21400217002D1C6EB030905E009EB06029A4278D8BD
S2140021809E4279D81C20FFF78DFF074650B9B8F15C
S214002190000F74D000F072FB1C20FFF783FF074689
S2140021A000286FD000237B60C7F81490A369BB613A
S2140021B02269964207D32468236913449E4201D3BA
S2140021C01A46F8E7B61AA368BB60E2683244FA60BB
S2140021D01A6801321A602369C3EB09053544002DDD
S2140021E003DCC7F8109038463EE09B1B3B61BA46BE
S2140021F01C264FF000093046FFF754FFCAF80000CF
S214002200D0B9B8F1000F07D000F038FB3046FFF722
S21400221049FFCAF8000078B93846FFF7A1FEDAF899
S2140022200030984231D00468FFF790FEDAF80030AC
S214002230A3422DD02046F6E7C0F804902468A26892
S2140022408260A3698361136801331360E368C36027
S2140022502269AB1A15EA230538BF15460561002B1F
S21400226002DD1D468246C6E7002303603846BDE809
S214002270F0870020BDE8F0870020BDE8F08700204A
S214002280BDE8F0870020BDE8F0870020BDE8F087B5
S2140022900020BDE8F08700BF2DE9F047814688465C
S2140022A0066873698B4249D33369994248D9002935
S2140022B048D0002E48D037463F683A6913449845C0
S2140022C001D9002FF8D108F10400FFF7EBFE824693
S2140022D000283BD00446012344F8043B2046F1681E
S2140022E0326901F085F83569B0680368012B02D1C0
S2140022F0FFF72CFE01E0013B0360C6F808A0F4607F
S2140023003468BC4226D1C5EB0807F0682844E1686B
S2140023103A4601F06DF82369DB1B236123B920469A
S214002320FFF71EFE044602E0E3683B44E3603460C9
S214002330C6F81080C9F80060002008E0002006E01B
S214002340002004E0002002E0002000E0FF2040B271
S214002350BDE8F087F0682844E168226901F048F893
S21400236023691D442046FFF7FBFD0446C9E700BF6E
S21400237008B50146024B1868FFF7EAFC08BD00BF27
S214002380000BFF1F08B50146024B1868FFF71CFD3F
S21400239008BD00BF000BFF1F38B50546FFF7F2FF6C
S2140023A0044610B1294601F087F8204638BD00BF24
S2140023B008B5024B1868FFF749FD08BD000BFF1F64
S2140023C008B5024B1868FFF7BFFC08BD000BFF1FDF
S2140023D010B5FFF743FC074B1C683CB1A3699B692B
S2140023E00BB1204698472468002CF7D1FFF73EFC37
S2140023F010BD00BFC44DFF1F074B1B684BB15A6A88
S214002400824203D105E05A6A824202D01B68002B42
S214002410F9D11846704700BFC44DFF1F08B530B14C
S2140024200288012A05D18068FFF7E6FF08BD002074
S21400243008BD002008BD00BF10B5044678B183690A
S214002440DB6803B1984763681BB92368044A1360C6
S21400245001E022681A6023680BB162685A6010BDFA
S214002460C44DFF1F10B50022084B1A60084B1C68AD
S2140024702CB12046FFF7E0FF2468002CF9D100239A
S214002480044A1360024A136010BD00BF040BFF1F0E
S214002490C44DFF1F080BFF1F10B50346002839D098
S2140024A04162002280F8442011F0800F06D1426B72
S2140024B00AB9FF224263FF22DA6218E001F0C00286
S2140024C0802A08D1426B12B94FF6FF7242634FF66C
S2140024D0FF72DA620BE001F0E002C02A07D1426B1D
S2140024E012B96FF07F4242636FF07F42DA62D86AB9
S2140024F001EA00029A625A6B01EA02041C6361EA6E
S2140025000000986361EA0201D9639A6952690AB1C8
S2140025101846904710BD00BF034650B141630022E5
S21400252080F84420426A01EA0200186362EA010168
S214002530D963704718B10164002280F844207047C0
S214002540014B1868704700BF080BFF1F08B1406AB0
S21400255070470020704700BF08B1406B70470020EE
S214002560704700BF08B1006C70470020704700BF7E
S21400257008B5034628B121B1084603F1080100F06A
S214002580EFFF08BD10B190F8440070470020704778
S21400259010B1012280F84420704700BF10B50446F1
S2140025A058B161B16AB183696BB1586882420CD385
S2140025B0DB6963B1204698470AE0FF2008E0FF2069
S2140025C006E0FF2004E0FF2002E0FF2000E0FF20FE
S2140025D040B210BD70B505460C461646032A0BD908
S2140025E00A784B781B0443EA0263CA781343887858
S2140025F043EA002001F0A6F85DB164B1AB6963B1AF
S2140026005A68B2420BD11B6A5BB1284621469847EE
S21400261008E0FF2006E0FF2004E0FF2002E0FF20A5
S21400262000E0FF2040B270BD2DE9F0410F46904615
S2140026300646002832D08369002B31D0FFF70EFB08
S2140026401E4B1B68336003B15E60002373601B4B38
S2140026501E60F06901253246A84218BF134605D110
S21400266002E0DC69AC4201D10135F5E71B68002BBE
S214002670F7D119E030469847044660B930463946E7
S2140026804246FFF7A7FFB3691B78012B03D13046FC
S214002690FEF716FC0446FFF7E9FA02E0002400E025
S2140026A0002460B2BDE8F081F56100233362B369AF
S2140026B09B68002BDED10024EDE700BFC44DFF1F52
S2140026C030B583B0FFF7CAFA0023164A1360164ADD
S2140026D01360164B186800909B88ADF804301448B9
S2140026E06946FEF773FB134869460622FFF79CFF10
S2140026F00446B0F1FF3F10D00E4D0A4B1D60284631
S2140027000D49FFF7C9FE28466FF07F41FFF704FF2B
S2140027100A4B2B64002385F84430FFF7A7FA2046BF
S21400272003B030BD080BFF1FC44DFF1F28810000FB
S2140027307C8100009004FF1F0A004D190A004D011D
S21400274008B518B18269D26A02B1904708BD00BFC9
S21400275008B518B18269126B02B1904708BD00BF78
S21400276008B520B18269526A1AB1904708BD0120A7
S21400277008BD012008BD00BF014B1860704700BFB0
S214002780040BFF1F08B5024B1B6803B1984708BD32
S214002790040BFF1F08B1C06970470020704700BFD8
S2140027A008B1006970470020704700BF024668B154
S2140027B0074B186858B1C369934203D17047C36981
S2140027C0934204D000680028F9D170470020704773
S2140027D0C44DFF1F70B5FFF741FA0E4E341F083682
S2140027E0002554F8043F1D60DB681BB19847B0F124
S2140027F0FF3F09D0B442F4D1FEF73CFEB0F1FF3FF4
S2140028000CBFFF24002400E0FF24FFF72FFA60B27D
S21400281070BD00BF9081000038B5FFF71FFA074D66
S2140028202C1F083554F8043F1B6903B19847AC4287
S214002830F8D1FEF789FEFFF719FA38BD908100003F
S21400284070B40D4E341F083654F8043F9D88284255
S2140028500BD09D798D4204D152B19D6845B1AA42F4
S21400286006D011B99D68954202D0B442ECD100233F
S214002870184670BC704700BF9081000038B5074D01
S2140028802C1F083554F8043FDB6903B19847AC4267
S214002890F8D1FEF743FEFFF79BFD38BD90810000A0
S2140028A00346402280F86C20002083F86D004FF429
S2140028B000629A649A63704738B505460C46FFF77F
S2140028C0CDF914F0010F06D0012385F8403005F14C
S2140028D0340000F06BFA14F0020F1CBF012385F8D9
S2140028E05030FFF7C3F9002038BD00BF2DE9F04790
S2140028F086B0044616461F460E9D836C934242D30E
S2140029000DB900F15405084631460022FFF712FCC7
S2140029108146002839D017F004071DBF94F8788048
S214002920012384F878304FF00008D4F810A06868C7
S214002930FFF73CFF2A88012A1BD1A16E94F86D3060
S214002940AA6802F0F005E02D0CBF94F86E5094F8DB
S2140029506C5000930195CDF808900023039394F8EB
S2140029607850049505935FFA8AF3FEF771FE0146E8
S21400297000E000210FB184F8788039B994F97030FE
S21400298023B9304608E0F82100E0FD21204649B290
S21400299000F06EF94FF0FF3006B0BDE8F08700BFDC
S2140029A070B586B004460A9E83F00203C3F3400364
S2140029B00093343003AB00F0AFFA0546B0F1FF3FAA
S2140029C009D094F9703043B97EB103A8314600F0BF
S2140029D0B9FC284609E0F82100E00021204649B26B
S2140029E000F046F94FF0FF30FFE706B070BD00BFBD
S2140029F038B504460D46FFF731F904F15400294670
S214002A000C2200F0F5FC0025A4F86250A4F85650FD
S214002A100223237304F1340000F0C8F9FFF726F907
S214002A20284638BD10B50446FFF718F90348214676
S214002A3000F0D0F9FFF71AF9002010BD2804FF1F98
S214002A4010B5054B196831B11C46204600F0C2F996
S214002A5021680029F9D110BD2804FF1F2DE9F84F81
S214002A608A4616461F468146002800F0B080002B96
S214002A7000F0AD805B69002B00F0A9800B88012B6D
S214002A8003BF0A9BDB685D7A00251046494600F0C6
S214002A908BFA20B9304600F075FA002876D04D4BF8
S214002AA01C68002C00F093804FF000082369AB42AE
S214002AB04BD1304600F066FA68B13388012B44D11A
S214002AC0E36F002B41D05968B26891423DD11B6834
S214002AD0994516D039E004F1600B584600F072FABA
S214002AE020B95846314600F0C5FA70B304F1540BCD
S214002AF0584600F067FA20B95846514600F0BAFA30
S214002B0018B3B8F1000F19D098F84030C3B938465A
S214002B1000214FF0FF320B46FFF71CFB834688B1BF
S214002B2008F134005946524600F0C8F9B0F1FF3FAC
S214002B300AD15846FFF78AFAA04606E0A04604E007
S214002B40A04602E0A04600E0A0462468002CADD1D6
S214002B50B8F1000F3BD098F84030002B37D13846FC
S214002B6000214FF0FF320B46FFF7F4FA044670B32D
S214002B7008F134002146524600F0A0F9B0F1FF3FBC
S214002B8025D12046FFF762FABDE8F88F114B18688A
S214002B90314652462B4600F001FB0446B8B190F889
S214002BA04030A3B9384600214FF0FF320B46FFF7FE
S214002BB0D1FA054658B104F134002946524600F0D1
S214002BC07DF9B0F1FF3F02D12846FFF73FFABDE896
S214002BD0F88F00BF2804FF1F064B1B782BB109286F
S214002BE005D8054B53F8200070470020704700209A
S214002BF0704700BF0C0BFF1F100BFF1F48B151B1F1
S214002C00038813F0010F08D00C2934BFFA200020E7
S214002C1004E0FA2002E0FA2000E0F42040B2704718
S214002C2010B5FFF71BF80D4B1B682BB10B4B0120A3
S214002C3053F8042F42B900E000204FF0FF32074B54
S214002C4043F82020044604E001300A28F0D14FF073
S214002C50FF34FFF70BF8204610BD00BF100BFF1F18
S214002C6008B50248282100F027FC08BD100BFF1FFE
S214002C7008B590F870201AB1002180F8701011463F
S214002C8080F86F100846FEF783F808BD38B505468D
S214002C900C46FEF7E3FF2B68236003B15C6000235D
S214002CA063602C60FEF7E2FF38BD00BF38B505460E
S214002CB00C46FEF7D3FF636813B923682B6001E068
S214002CC022681A6023680BB162685A60FEF7CEFF6E
S214002CD038BD00BF38B50546FFF77EFF044678B11D
S214002CE0C06F08B1FEF760FC63691B6A9B6813B18E
S214002CF02046984750B90020054B43F8250005E0CC
S214002D006FF01B00FEF744F8FF20FFE740B238BD27
S214002D10100BFF1F2DE9F04383B00F4691469846EF
S214002D200A9D0B9EFFF758FF044638B36FB3B0F802
S214002D30621019B943699B79032B28D13DB136B18E
S214002D4004F160003168FFF759FF014620BB94F894
S214002D504030F3B963691B6AD3F814C0BCF1000FA6
S214002D6019D01DB1002E08BF002500E000250095F3
S214002D70204639464A464346E04713E06FF01B00BC
S214002D80FEF706F84FF0FF300CE0FA2104E0FB21D6
S214002D9002E0EB2100E0F521204649B2FFF768FF8C
S214002DA04FF0FF3003B0BDE8F08300BF38B50546EE
S214002DB0FEF754FF55B1A86840B14468FFF746F9DE
S214002DC00CB12046F9E70023AB602B60FEF74EFF00
S214002DD038BD00BF38B505460C46FEF73FFF28460F
S214002DE02146FFF763FF04F13400FFF7DFFF04F12D
S214002DF04400FFF7DBFF2046FFF7BAFAFEF736FF80
S214002E0038BD00BF2DE9F04107460C469046294BD9
S214002E101B78002B3ED0FFF703FF0546B0F1FF3FBF
S214002E203AD0384621464246FFF70AFD064648B3E2
S214002E308020FFF7B1FA044630B31F4B43F8250055
S214002E4085604661A0F8607000230373C0F81080A8
S214002E50B8F1000F01D1B3680361A4F8547030468E
S214002E602146FFF713FF336A5B68EBB120469847AD
S214002E70B0F1FF3F1BD160692146FFF7ABFFFDF7BE
S214002E8081FF02E0F62000E0FD2000220A4B43F816
S214002E90252002E0E72000E0FE2040B2FDF778FFA4
S214002EA04FF0FF30BDE8F0812846BDE8F0812846A7
S214002EB0BDE8F0810C0BFF1F100BFF1FF8B5044692
S214002EC00D461746FEF7CAFE20686B69184463680D
S214002ED098421BD80C200021FFF7EEF80646A8B152
S214002EE0C06839460C2200F083FA22686B691344E6
S214002EF044F8083B30462946FEF7F6FF01462046D2
S214002F00FFF70CF8FEF7B2FE002002E0FEF7AEFE7A
S214002F10FF2040B2F8BD00BF2DE9F04107468C46C1
S214002F209846856855B32E6856B17469A24238BF74
S214002F3014463046002122466346FEF79FFF00E017
S214002F4000244046E9680C2200F052FA6B690C3BFC
S214002F509C4238BF4FF0FF349DF818307BB1FEF727
S214002F607DFE1EB13B6872699B1A3B6007F1080044
S214002F702946FFF77FF8FEF779FE00E0002420469A
S214002F80BDE8F08158B1028812F0010F09D08068C0
S214002F9000F0F000E02814BF002001207047002059
S214002FA070470020704700BF08B538B1028812F09D
S214002FB0010F05D08068FEF703FB08BD002008BDA2
S214002FC0002008BD48B1028812F0010F07D08068C3
S214002FD0D0F1010038BF0020704701207047012063
S214002FE0704700BF2DE9F04383B00E4691469846E1
S214002FF00A9D0B9FFFF7F0FD044608B305B137B9ED
S21400300004F15400FFF7DEFF08BB002509E0284660
S2140030103946FFF7F3FD014610BB2846FFF7D2FFFF
S214003020B8B9C6B194F85030BBB963691B6A9F69DA
S214003030AFB10095204631464A464346B84715E0AC
S2140030406FF01B00FDF7A4FE4FF0FF300EE0EC2102
S21400305006E0F92104E0FA2102E0EB2100E0F52188
S214003060204649B2FFF704FE4FF0FF3003B0BDE83C
S214003070F08300BF034670B179B102880888904299
S2140030800DD112F0010F0CD098688B68984214BFCF
S2140030900020012070470020704700207047002065
S2140030A070470020704700BF2DE9F8430F46904652
S2140030B09946044670B34E88B4F86250B54225D19E
S2140030C03846FFF77FFF10B1B9F1000F34D104F195
S2140030D060003946FFF7CEFFC0B1B8F1000F02D14D
S2140030E0B9F1000F19D104F154004146FFF7C2FFB1
S2140030F060B1B8F1000F03D1B9F1000F06D00FE0B0
S214003100B4F85620B8F802309A420CD02468002C46
S214003110D2D10BE00020BDE8F8830120BDE8F8839B
S2140031200120BDE8F8830120BDE8F8830020BDE853
S214003130F8830120BDE8F883B8F1000FD3D1F8E793
S214003140F0B585B00646144B1C8801A80C2200F08A
S2140031504FF9FEF783FD40F6877540F20147A4F568
S21400316080639BB2AB429ABF0134A4B23C46204671
S21400317003F01CFAADF80600304601A90022012330
S214003180FFF792FF0028EAD1034B1C80FEF76EFD86
S214003190BDF8060005B0F0BD4C04FF1F2DE9F84F42
S2140031A00E4691461D460446002850D04FF0030BAD
S2140031B04FF000082369AB4245D1B4F8622073880B
S2140031C09A4240D1636E13B1726893423BD104F1C8
S2140031D060073846FFF7F6FE50B93046FFF7F2FEB6
S2140031E070B938463146FFF745FF60B3002708E060
S2140031F03046FFF7E7FED0F1010738BF002700E0B2
S214003200012704F1540A5046FFF7DCFE88B9484609
S214003210FFF7D8FE08B1013710E050464946FFF7E1
S21400322029FF80B1B4F85620B9F802309A420AD184
S21400323004E04846FFF7C6FE00B901375F4502D2F4
S2140032403FB1BB46A0462468002CB3D102E08046BE
S21400325000E0A0464046BDE8F88F00BF034648B1F0
S21400326041B10A880088904204D112F0010F1CBFB9
S2140032709B688B60704700BF70B50D461646FFF71B
S214003280ABFC0446002849D028463146FFF7B6FC7A
S214003290014600284FD1B4F86230002B44D104F127
S2140032A060063046FFF78EFE00283FD02846FFF720
S2140032B069FEB0B92846FFF785FE40B930460021C2
S2140032C0FFF772FE18B92846FFF7A8F880B36B8898
S2140032D03BB163691868294600221346FFF7E4FEEF
S2140032E040BB28463146FFF7B9FF6B8853B9626981
S2140032F09179032906D010683146FFF721FFA4F81C
S214003300620001E0A4F8623004F13400FFF74EFDDD
S21400331004F14400FFF74AFD002011E06FF01B00A7
S214003320FDF736FDFF200BE0FA2104E0FA2102E06B
S214003330F12100E0F221204649B2FFF799FCFF2078
S21400334040B270BD08B5034648B141B1028812F0DC
S214003350010F04D0084619460C2200F049F808BDB3
S21400336010B5034630B3184A12782ABB006859686D
S214003370FEF7DEFD044600BBFEF7C0FC642000F04E
S214003380E9F9B0F1FF3F0BD0FFF724FAB0F1FF3FA9
S21400339006D0FFF765FCFFF793F9B0F1FF3F0ED1BB
S2140033A0FFF760F8FFF738FA00F0DEF9FFF708F8E5
S2140033B0FF2402E0FF2400E0FF2460B210BD0122DB
S2140033C0014B1A70F9E700BF0C0BFF1F08B5074B3F
S2140033D01B7853B1FFF746F8FFF71EFA00F0C4F962
S2140033E0FEF7EEFF0022014B1A7008BD0C0BFF1F04
S2140033F0F0B4032A4AD911F0010F04D011F8013BAA
S21400340000F8013B013A11F0020F04D031F8023BFC
S21400341020F8023B023A970929D00C4603463D465F
S21400342026681E6066685E60A6689E60E668DE6067
S21400343026691E6166695E61A6699E61E669DE614F
S214003440266A1E62666A5E62A66A9E62E66ADE6237
S214003450266B1E63666B5E63A66B9E63E66BDE631F
S21400346040344033013DDBD1BF0138443944C2F318
S21400347083075FB13B4605460C4654F8046B45F897
S214003480046B013BF9D1BF003844394412F0020FF7
S2140034901CBF31F8023B20F8023B12F0010F1CBFA4
S2140034A00B780370F0BC704722B1821800F8011B3D
S2140034B09042FBD1704700BF29B14118002300F8A5
S2140034C0013B8842FBD1704710B414468AB102789B
S2140034D00B789A420FD10346013C204405E013F8CE
S2140034E0014F11F8012F944207D18342F7D10020F3
S2140034F004E0002002E0012000E001205DF8044B1B
S214003500704700BF30B40B788BB190F900405AB2C8
S21400351094420CD1421C05E0013290F900505CB296
S214003520A54204D1104611F8013F002BF4D190F9C2
S21400353000005BB2C01A30BC704700BF014640B105
S21400354090F900303BB100230133CA56002AFBD164
S21400355003E000207047002070471846704700BF01
S21400356010B4044660B159B152B10B7833B104F8C7
S214003570013B11F8013F0BB1013AF8D1002323704B
S2140035805DF8044B704700BF10B4441C02785AB173
S2140035900346002052B28A4208BF18469C1C13F805
S2140035A0012F002AF6D118B909B9601E00E00020E4
S2140035B05DF8044B704700BF421C037863B15BB2F2
S2140035C0994205D102E05BB2994201D1501E704784
S2140035D012F8013B002BF6D109B9501E70470020A7
S2140035E0704700BF2DE9F001074628B1012A03D035
S2140035F0242A01D8034604E000296AD00F60002080
S21400360076E01E4613F8014B65B2202DF9D0092D41
S214003610F7D02D2D0DD0302D0FD196F9010020F0CA
S214003620200058280CD132F0100054D10236102257
S21400363051E001364FF0010C04E04FF0000C01E0C1
S2140036404FF0000C002A08BF0A22337823F020002F
S21400365040B2002847D058B2092846D00020354648
S214003660DBB2A3F13004E4B2092C06D923F020041F
S214003670413CE4B2192C31D801E0E4B209E0A3F1F0
S2140036804104E4B2192C94BFA3F13704A3F1570404
S214003690E4B264B2A24221D9BCF1000F03D002FB0F
S2140036A000F0001B01E002FB004006F10108464660
S2140036B06B7823F0200464B2C4B15CB2092C15D038
S2140036C0CDE7012300E000230E608BB10F600020E1
S2140036D00EE000200CE04FF0000CB6E76E1C002950
S2140036E0EFD1002004E0002000E000200029EAD10D
S2140036F0BDE8F001704700BFC3B2A3F14102D2B2E9
S214003700192A9CBF03F12000C0B240B2704700BF28
S21400371070B506460D4616F9010BFFF7EDFFC4B26D
S21400372015F9010BFFF7E8FFC0B2844203D305D8B2
S214003730002CF0D104E04FF0FF3070BD012070BDCA
S214003740002070BD024B1A6810441860704700BF16
S214003750380BFF1F08B50022024B1A6002F062FB0E
S21400376008BD00BF3C0BFF1F38B502F08BFB064BB5
S214003770186838B11D460468FEF7FAFD2C600CB1D7
S2140037802046F8E738BD00BF400BFF1F014B186806
S214003790704700BF3C0BFF1F024B1A6801321A60CD
S2140037A0704700BF3C0BFF1F38B50A4B1C687CB146
S2140037B0094D63682A68D21AA368934205D82B6815
S2140037C06360E3680BB1206998472468002CF0D149
S2140037D038BD00BF400BFF1F3C0BFF1F70B50C46EB
S2140037E01546064668B171B11420FEF7D5FD0346AE
S2140037F050B106490A68026008608660C4600561C8
S21400380002E0002300E00023184670BD400BFF1FB7
S21400381008B5014688B1094B1A68904203D103687F
S214003820064A136006E01368994201D01A46FAE782
S2140038300B6813600846FEF79BFD08BD400BFF1F94
S214003840081A7047034B1A6819460B689B1A984269
S214003850FBD870473C0BFF1F0346402280F86C20C5
S214003860012280F86E20002083F86D004FF400627D
S2140038709A649A63704700BF38B505460C46FEF753
S214003880EDF914F0010F06D0012385F8403005F15C
S2140038903400FFF78BFA14F0020F1CBF012385F8E3
S2140038A05030FEF7E3F9002038BD00BF2DE9F04F99
S2140038B087B004460D4690469946109EFEF7CEF910
S2140038C0A36C434574D30EB904F15406284641460A
S2140038D00022FEF72FFC074600286BD0B4F86230B3
S2140038E03BB96369186804F16001FFF729FCA4F886
S2140038F0620019F004091DBF94F878A0012384F82B
S21400390078304FF0000A706800B9606EFEF74EFF20
S214003910834608200121FEF7CFFB20B93846FEF784
S21400392095FBFD2137E0C568B4F862202A807288CE
S2140039306A803946FEF7D8FA0746808A02F036FED5
S214003940A8800023AB71EB7138464FF48851BA8AD1
S214003950FDF7E8F9E8803388012B1BD1A16E94F8B7
S2140039606D00B26802F0F003E02B0CBF94F86E30E6
S21400397094F86C300090019302970023039394F818
S214003980783004930635059558461123FDF760FEFA
S214003990014600E00021B9F1000F01D084F878A0BC
S2140039A049B994F9703033B9FEF760F940460AE039
S2140039B0F82100E0FD21204649B2FFF759F9FEF74D
S2140039C055F94FF0FF3007B0BDE8F08F2DE9F04114
S2140039D086B004460F46154698460C9E03A80C2152
S2140039E0FFF76AFD88F00208C8F34003009304F16D
S2140039F0340039462A4603ABFFF78EFA0546B0F187
S214003A00FF3F09D094F8701039B96EB103A831465B
S214003A10FFF798FC284607E0F821204649B2FFF752
S214003A2027F94FF0FF30FFE706B0BDE8F08100BF92
S214003A3038B504460D46FEF711F904F15400294640
S214003A400C22FFF7D5FC0223237304F13400FFF7A2
S214003A50ADF9FEF70BF9002038BD00BF10B50446DF
S214003A60FEF7FCF803482146FFF7B4F9FEF7FEF828
S214003A70002010BD5004FF1F10B5054B196831B16A
S214003A801C462046FFF7A6F921680029F9D110BD8B
S214003A905004FF1F2DE9F0411546884689B382B3CE
S214003AA07BB3DF68013808282BD8DFE800F0050B69
S214003AB007070B0B2A2A0900F82604E0EE2602E088
S214003AC0F72600E0E826104B1C68D4B104F1540039
S214003AD02946FFF7CFFA78B1B4F856207B889A4289
S214003AE00AD1B4F862203B889A4205D004F16000FF
S214003AF04146FFF7BFFA08B984F870602468002CC6
S214003B00E4D1BDE8F08100BF5004FF1F2DE9F04F5F
S214003B1083B00E4615460193DC680746002800F081
S214003B20DC80002B00F0D98001A80821FEF7B4FB4A
S214003B30B0F1FF3F00F0D180A08802F037FD80464C
S214003B40019B5969884200F2C88004D201A8C1EBE3
S214003B500801FEF719FAE3889BB101984FF48851E3
S214003B604246FDF7DFF82B88012B06F1080105F128
S214003B70080214BF10230423FDF7ECF8002840F0D9
S214003B80AC8063886B802388738001A80821FEF7C9
S214003B90FBF928463946FFF707FA20B92846FFF70B
S214003BA0F1F9002875D0514B1C68002C00F0958068
S214003BB04FF00008C2464FF0FF39B4F862206B8819
S214003BC09A4250D12846FFF7DDF968B12B88012BC1
S214003BD049D1E36F002B46D05968AA68914242D17A
S214003BE01B689F421CD03EE004F1600B5846FFF76E
S214003BF0E9F928B958462946FFF73CFA002832D09A
S214003C0004F1540B5846FFF7DDF948B958463146DB
S214003C10FFF730FA38B3B4F8562073889A4222D1A8
S214003C20B8F1000F18D098F84030BBB9019851464B
S214003C304A465346FEF78EFA834688B108F13400AA
S214003C4059463246FFF73AF9B0F1FF3F0AD15846D7
S214003C50FEF7FCF9A04606E0A04604E0A04602E017
S214003C60A04600E0A0462468002CA6D1B8F1000FBC
S214003C7033D098F8403083BB08F1340001993246BF
S214003C80FFF71CF9B0F1FF3F27D00C98FEF7DEF9DE
S214003C9029E0164B1868294632461123FFF77EFAAC
S214003CA070B190F84020C2B9343001993246FFF71F
S214003CB005F9B0F1FF3F10D00C98FEF7C7F912E0F7
S214003CC00198FEF7C3F92B88012B0CD13846032147
S214003CD00A460C9BFDF7AAFA05E00C98FEF7B6F923
S214003CE00198FEF7B3F903B0BDE8F08F5004FF1F4C
S214003CF070B584B00446002800F08C808388002BC2
S214003D0000F08A80061D3046FFF75CF9002840F078
S214003D1085802369002B00F083806369002B00F008
S214003D208180444B5B7A002B7ED1424D28464FF46F
S214003D300E71FFF7C1FB05F10C0031460C22FFF7B0
S214003D4057FBEB8913B94FF48A42EA816269394B13
S214003D509A61A269DA61E36923B942F21072354BBF
S214003D609A6205E04FF47A7202FB03F3314A9362DB
S214003D70A08802210022FFF745F82E4B1860B0F10C
S214003D80FF3F53D001A80C21FFF796FBA388ADF8A0
S214003D900430284B186801A90C22FFF76DFAB0F121
S214003DA0FF3F31D02378234A137233B1012B2BD136
S214003DB04FF400721F4B9A8503E04FF480721D4B40
S214003DC09A851C4D05F12E00216940F2F712FFF787
S214003DD0C7FB2069FFF7B2FB28442F30164909229B
S214003DE0FFF7BEFB2069FFF7A9FB0930C5F83002D4
S214003DF01248294601F09CF96860B0F1FF3F03D0F5
S214003E0001226A72002012E00A4B1868FEF762FF71
S214003E10FF200CE0FF200AE0FF2008E0FF2006E07D
S214003E20FF2004E0FF2002E0FF2000E0FF2040B279
S214003E3004B070BD440BFF1FF4810000613E00001B
S214003E4010B5064B5B7A43B1044C2068FEF742FF80
S214003E50606801F095F90023637210BD440BFF1FE4
S214003E6070B586B00446437A012B02D0022B1CD0D4
S214003E70EAE003AD28467C490C22FFF7B9FA214652
S214003E8051F82C0BD4F8302200950C230193002314
S214003E90FFF7A8F8D4F83032834240F0D880FFF716
S214003EA075FC606202236372DCE00C23029300F16F
S214003EB02C0600686B44009302AB019331464FF426
S214003EC001720023FEF726FF0546032840F3A9806B
S214003ED003A804F10C01FFF7CDF8002800F0C2801B
S214003EE0A38DB3F5A06F10D1A569267AE08D02F0F8
S214003EF05DFB0246E3690093304604F130014FF063
S214003F00FF33A84703236372ACE0227A002A3FD12E
S214003F10B3F5407F40F09B80238C13B9BDF80E307C
S214003F202384228CBDF80E309A4240F09B804FF4DA
S214003F308063A38503AB00930C230193206831466E
S214003F4004220023FFF74EF8FFF720FC6062668C21
S214003F500136E08D02F02AFB864240F08380638CB7
S214003F6001336384207AE3690093A66904F1300183
S214003F702A1F0023B047B0F1FF3F02D1032363722C
S214003F8070E0B5F5017F6DDA0322384B5A7269E0AE
S214003F90012A5CD1B3F5806F59D1658C15B9BDF88F
S214003FA00E302384228CBDF80E309A425AD1E08D12
S214003FB002F0FCFA85421DD1638C3BB1D4F8342262
S214003FC0B2F5007F02D2032363724BE001336384B1
S214003FD0207AE3690093A56904F130014FF400727A
S214003FE00023A847B0F1FF3F02D10323637239E0F4
S214003FF0C4F834024FF44073A385608C02F0D6FAFE
S214004000E085D4F8342203AB00930C230193206898
S214004010314604320023FEF7E5FFFFF7B7FB606288
S21400402020E0B0F1FF3F12D0656AFFF7AFFB014614
S2140040302846FFF705FC0D4B9A6A0D4BA3FB0213AF
S214004040B0EB531F0ED902E0FFF7FAFE0AE0032397
S2140040506372207AE3690093A469064900224FF050
S214004060FF33A04706B070BD500BFF1F440BFF1F69
S2140040701F85EB517404FF1F10B582B004464FF441
S2140040804073A0F84C30008F02F090FAA4F84E006F
S214004090A068D4F8542204F10C0300930C23019377
S2140040A004F14C0104320023FEF79CFFFFF76EFB81
S2140040B0E06302B010BD00BF10B582B004464FF4F6
S2140040C08063A0F84C30008F02F070FAA4F84E001F
S2140040D0A06804F10C0300930C23019304F14C0137
S2140040E004220023FEF77EFFFFF750FBE06302B0DA
S2140040F010BD00BFF0B583B004460F4616461D46F9
S2140041004FF4A063A0F84C30104602F04FFAA4F823
S2140041104E002DB9072E0BD80F4B53F826503DB145
S21400412004F15000294640F2FF12FFF719FA02E0A8
S214004130002384F850302846FFF700FA421D089BFB
S21400414000930C230193384604F14C010023FEF73C
S21400415049FF03B0F0BD00BFFC81000030B585B05C
S21400416004460A4600238DF80F30029390F830007C
S21400417002AB0093E36A0193256A04F150010DF146
S2140041800F03A8470546B0F1FF3F0CD1A1689DF884
S2140041900F2004F10C0300932046029BFFF7AAFFB2
S2140041A00323237002E0238F01332387284605B0BC
S2140041B030BD00BF70B58AB004460378012B03D02B
S2140041C0022B00F0A9804FE10C230693406807AB52
S2140041D0009306AB019304F14C0140F20222002347
S2140041E0FEF798FD032840F3638100238DF817300F
S2140041F00493B4F84C30B3F5807F03D0B3F5007F5A
S21400420004D055E1002384F8303002E0012384F81E
S214004210303004F14E02861E74D094F94E3053B1FD
S21400422013463046002102E013F8015F25B1013144
S2140042308142F9D100E0002101315318B14261D228
S214004240505620B924E15056002800F02181013153
S214004250B142F8D356E0FF2384F82830BDF81C009E
S21400426002210022FEF7CEFDA060B0F1FF3F0AD18A
S214004270616807AB0093204600221346FFF73AFF1B
S2140042800323237014E104F10C0307AD95E807003F
S21400429083E807000023ADF81E3009A80421FFF7C5
S2140042A00BF9A06829460C22FEF7E6FFB0F1FF3FA7
S2140042B00AD1616807AB0093204600221346FFF739
S2140042C019FF03232370F3E00023238794F830308C
S2140042D0012B02D1774B63630CE020464FF400714C
S2140042E0FFF73CFFB0F1FF3F00F0E280C4F8540255
S2140042F0714B6363636B2046984702232370002349
S214004300A364D5E061689DF8172007AB00932046AC
S214004310049BFFF7EFFECBE00C230693806807AB09
S214004320009306AB019304F14C014FF40172002395
S214004330FEF7F0FC0546032879DDB0F1FF3F04D018
S214004340B4F84C30B3F5A06F02D1032323706EE0AF
S214004350E289BDF81E309A4205D104F10C0007A987
S214004360FEF788FE50B9A16807AB009320460522E9
S2140043700023FFF7BFFE032323705EE094F830307F
S21400438033BBB4F84C30B3F5806F45D1258FB4F805
S2140043904E0002F00BF9854216D1D4F85432B3F52C
S2140043A0007F05D2002384F82830032323707FE0A3
S2140043B020464FF40071FFF7D1FEB0F1FF3F77D0F3
S2140043C0C4F854020023A364636B2046984734E085
S2140043D0012B21D1B4F84C30B3F5407F1CD1268F89
S2140043E00136B4F84E0002F0E1F8864210D12046BD
S2140043F0291FFFF7B3FEB0F1FF3F59D0B5F5017F97
S21400440004DA002384F82830032323700023A364EF
S214004410636B2046984710E0A16807AB00932046E0
S21400442004220023FFF766FE0323237005E0B5F1A0
S214004430FF3F02D1032323703AE0E56BFFF7A6F9AE
S21400444001462846FFF7FCF9236C984230D9A36C46
S214004450626C934205D20133A364636B204698478F
S21400446026E00323237023E08068B0F1FF3F04D0EA
S214004470FEF730FC4FF0FF33A360636A2BB194F86D
S214004480300094F92810E26A9847012323700FE061
S21400449094F830000DF11701009104A90191E16A2A
S2140044A00291E56907A9A84700283FF4D4AE29E79A
S2140044B00AB070BDB94000007940000030B585B044
S2140044C00446002861D00369002B61D0C368002B26
S2140044D061D03C4B1B78002B60D04FF0FF306FE074
S2140044E00322384B1A6401E0364A1364354B1A6CC3
S2140044F04FF47A7101FB02F23349A1FB0202520922
S2140045001A64236A1BB904222E4B5A6401E02D4A12
S21400451053644FF0FF322B4B9A6001A821460C22C1
S214004520FEF766FFBDF806301BB94FF48A43ADF8B8
S2140045300630BDF8043013B90123ADF80430BDF8D9
S214004540040002210022FEF75DFC1E4B5860B0F10D
S214004550FF3F35D001A90C22FEF78EFEB0F1FF3FDB
S2140045600CD0184C1948214600F0E2FDA061B0F1CD
S214004570FF3F03D020460123237021E0114B5868EB
S214004580FEF7A8FB4FF0FF301AE04FF0FF3017E0C1
S2140045904FF0FF3014E04FF0FF3011E0094D284691
S2140045A04FF41671FEF788FFE368EB6123692B6210
S2140045B063696B62A369EB62E369002B90D093E7B3
S2140045C005B030BD7C0DFF1F1F85EB51B5410000C7
S2140045D010B582B00446B0B10378A3B1022B07D160
S2140045E0816800F10C03009300221346FFF782FD5A
S2140045F06068FEF76FFBA068FEF76CFBA06900F032
S214004600BFFD0023237002B010BD00BF08B10078C4
S21400461070470020704700BF08B590F8303013B1DF
S214004620C06A00F079FA08BD10B5002831D042689B
S214004630002A31D08268002A31D01D4A127A002A18
S21400464030D101681A4A116051604168D1618168B1
S2140046501162017C82F83010C3680BB1D36202E0AD
S214004660144A134BDA62124C1348214600F060FDE0
S214004670E060B0F1FF3F18D00122227200222261D2
S214004680E1690A7023689B680BB120469847084882
S21400469010BD4FF0FF3010BD4FF0FF3010BD4FF093
S2140046A0FF3010BD4FF0FF3010BD4FF0FF3010BD93
S2140046B0D40FFF1F0C830000C14700000EB430B5B6
S2140046C082B0044650B106AA0192C06A059900F06D
S2140046D04BFA0546E06A00F041FA00E0002528465D
S2140046E002B0BDE8304003B0704700BF0EB430B52E
S2140046F082B0044678B106AA0192C06A059900F015
S21400470033FA054620460749FFF7D8FF0544E06A16
S21400471000F024FA00E00025284602B0BDE830404C
S21400472003B07047548F000010B5044628B1C06A25
S21400473000F0F2F9E06A00F011FA10BD08B518B101
S214004740C06A00F005FA08BD4FF0FF3008BD00BF94
S21400475010B5044640B1C069226AFEF701FF032384
S2140047602372E3696361A36110BD00BF08B5034609
S21400477018B1C069196AFEF79FFE08BDF0B583B090
S214004780064603681C6822685AB1074F63692569A4
S214004790009530463946FFF7A9FF54F8182F002A2F
S2140047A0F4D103B0F0BD00BFC082000008B5C06AF7
S2140047B000F0CEF940B2032814BF0020012008BD47
S2140047C02DE9F04F95B004460768037A013B042BA9
S2140047D000F24381DFE813F005000C0054002601C8
S2140047E03B019F497A68FFF769FF0223237234E191
S2140047F0C06A00F0ADF90146B0F1FF3F00F02D8130
S214004800C2B253B20D2B29D02369206A834225D227
S214004810082901D07F2911D1002B00F01E81013B11
S214004820236120460821FFF7F7FEE06A202100F00A
S21400483073F9E06A082100F06FF90EE15D1CA842EA
S21400484040F20B8150B21F2840F30781E0692561D2
S214004850C254204649B2FFF7DFFEFEE0E269236954
S2140048600021D15420460D21FFF7D6FE20460A210E
S214004870FFF7D2FE03232372E3696361A361ECE0D2
S214004880836943613B250026A36993F900200AB19A
S2140048900133A361A0692946FEF78EFEA06178B1B8
S2140048A06369984206D010F9013C5C2BECD0431C9F
S2140048B0A3610670A3691BB113F9013C002BE3D179
S2140048C0E0696169226AFEF74BFED4F81C90B9F1E4
S2140048D0000F00F09C8099F80030002B00F09780C5
S2140048E009F10102CC4600263146304635464FF0E7
S2140048F0010AB346019645B94FFA83F8B8F1200F7E
S21400490010D0B8F1090F30D10CE0012D2DD14FFA9F
S21400491083F8B8F1270F28D120B112F9028CB8F12C
S2140049205C0F22D0002937D08CF800B006F1804307
S214004930013B14A901EB830353F8441C0D460BE01E
S2140049404FFA83FCBCF15C0F04D195F900C0BCF1B2
S2140049505C0F01D10B70013115F8013B002BEFD134
S21400496081F800B0019D294616E0A9B90F2E19D886
S2140049705BB2272B07D128B112F9023C5C2B18BF7B
S214004980012500E0554614A901EB86032918494481
S21400499043F8441C013651460130944612F8013B58
S2140049A0002BA8D1002214A901EB860343F8442C5F
S2140049B0002E2CD03D68286820B32F460399FEF7BA
S2140049C0A7FEC0B9731E6A6893420ED3AA689342C4
S2140049D00BD8EB681BB12046314603AA98472368DC
S2140049E01F68237A002B38D00AE020461D49039A18
S2140049F0FFF77CFE04E055F8180F0028DDD101E033
S214004A003B6823B920461849039AFFF76FFE94F8CF
S214004A10243013B1042323721FE0A369EBB90523E6
S214004A2023721AE090F824304BB1FFF7BFFEA0B116
S214004A30A36A20469847002384F824300DE0836953
S214004A4013B90523037208E00323037205E001236C
S214004A50037200230361C269137015B0BDE8F08FBE
S214004A60CC820000D0820000F082000030B139B164
S214004A70012280F824208162002002E0FF2000E06E
S214004A80FF2040B2704700BF10B1002280F82420FB
S214004A90704700BF10B400240470012A16D10968BC
S214004AA019B930234370012026E00446002091FB0C
S214004AB0F3F202FB13110029B4BFC1F1300130310B
S214004AC004F8011F0130BAB11146F0E7096819B9B8
S214004AD03023437001200FE004460020B1FBF3F2C0
S214004AE003FB1211092994BF3031573104F8011F16
S214004AF001300AB11146F1E75DF8044B704700BF7C
S214004B0043683BB103681970036801330360436868
S214004B10013B4360704700BF08B54368006898478C
S214004B2008BD00BF2DE9F0410F4614461E46069DFF
S214004B309A420BD24FFA80F82A6801322A60384629
S214004B404146FFF7E9FF0134A642F5D8BDE8F081FB
S214004B5008B583680068984708BD00BF08B5C368F5
S214004B600BB10068984708BD2DE9F04F95B0074691
S214004B700C46914600230A930D78002D00F01F8204
S214004B800693059304939B466BB2252B11D00A2BF4
S214004B9006D10A9B01330A9338460D21FFF7BCFF66
S214004BA00A9B01330A93384669B2FFF7B5FF2646DB
S214004BB000E223465C4693F90120203A102A1AD8D0
S214004BC0DFE802F00F191915191919191919190C16
S214004BD019091919120044F001040AE044F002040D
S214004BE007E044F0040404E044F0080401E044F064
S214004BF010040133DFE75D4605E005EB85056D0033
S214004C00303D45FA82F5194613F8012FA2F130001F
S214004C10C0B20928F1D903950A4691F901302E2B26
S214004C2007D1CEE1194601334A78303AD2B2092A82
S214004C30F8D991F90130682B03D06C2B01D04C2B9E
S214004C4000D101314E1C49784BB2583B202B00F264
S214004C506981DFE813F0810067016701670167017A
S214004C6067016701670167016701F1001D01210007
S214004C706701670167016701210067016701670136
S214004C8067016001E300FF00670167012A01670111
S214004C900D0167016701810009F10408D9F80030A9
S214004CA009930BA809A901220A23FFF7F3FE049033
S214004CB00DF12C0A8244099B002B04DA0130049083
S214004CC04FF02D0987E114F0020F05D0049B013345
S214004CD004934FF02B097EE114F0040F00F080815E
S214004CE00498013004904FF0200974E10A9B0133C8
S214004CF00A9338464946FFF70FFF0AAA009230206B
S214004D003946049A039BFFF70DFF04956DE114F0F6
S214004D10010F40F06E8100E0D9460AAB00932020D8
S214004D203946049A039BFFF7FDFEB9F1000F00F029
S214004D305C810A9B01330A9338464946FFF7ECFE2E
S214004D4053E10A9B01330A9338464946FFF7E4FECF
S214004D50C14601200590F2E009F10408D9F80030B8
S214004D6008930BA808A95A461023FFF793FE049051
S214004D700DF12C0A824414F0080F1BD014F0100F0B
S214004D8000F05E810A9B02330A9338463021FFF713
S214004D90C3FE38467821FFF7BFFE0AAA00923020ED
S214004DA03946049A039BFFF7BDFEC14604950123CE
S214004DB00593C4E014F0010F40F02F8114F0100F9B
S214004DC000F01F810498023004900AAA0092202066
S214004DD03946049A039BFFF7A5FE0A9B02330A9303
S214004DE038463021FFF798FE38467821FFF794FEC4
S214004DF0C14601230593A2E00A9B02330A93384674
S214004E003021FFF789FE38467821FFF785FE0498A3
S214004E1002300490C1460122059290E009F1040890
S214004E20D9F8003008930BA808A95A460823FFF7BC
S214004E3031FE0490C146F8E009F10408D9F80030C4
S214004E4008930BA808A95A460223FFF723FE0490EE
S214004E50C146EAE009F10408D9F8003008930BA827
S214004E6008A95A461023FFF715FE0490C146DCE059
S214004E7009F10408D9F8003008930BA808A95A4687
S214004E800A23FFF707FE0490C14601230593CCE0F2
S214004E9009F1040899F800100A9B01330A93384672
S214004EA049B2FFF739FEC14649E009F10400079010
S214004EB0D9F80080B8F1000F3CD04046FEF73EFB24
S214004EC0049014F0010907D10AAA0092202039465E
S214004ED0049A039BFFF726FE98F900306BB108F1A1
S214004EE0FF380A9B01330A93384618F9011FFFF76B
S214004EF013FE98F90130002BF3D1B9F1000F1CD046
S214004F000AAB009320203946049A039BFFF70AFE5B
S214004F10DDF81C9013E0D9F800300A9A1A6009F1FF
S214004F2004090CE00A9B01330A93384649B2FFF79E
S214004F30F3FD04E0DDF81C9001E0DDF81C90069817
S214004F40D0B10DF12C0A049A924414F0080F08D040
S214004F500AAB009330203946039BFFF7E3FD049528
S214004F600AE014F0010F07D10AA800902020394665
S214004F70049A039BFFF7D6FD059ADAB19AF800105B
S214004F8069B10AF1FF350A9B01330A93AA463846EF
S214004F9049B2FFF7C1FD15F801190029F3D114F045
S214004FA0010F07D00AAB009320203946049A039BD2
S214004FB0FFF7B8FD741C7578002D7FF4E5AD0A98F0
S214004FC04BE08B1C89783039C9B2092988BF511C3F
S214004FD03FF62FAE26E614F0080F7FF487AE96E66F
S214004FE014F0080F7FF489AE22E0C1460120059038
S214004FF0A5E7B9F1000F7FF4A4AEC14601220592E1
S2140050009DE70AAB009320203946049A039BFFF7DE
S21400501089FDC1460120059091E714F0100F7FF43A
S214005020EBAEC1460122059289E70123069388E785
S21400503014F0010F3FF470AEC146012005907EE7E4
S2140050400AAA009230203946049A039BFFF76AFDAD
S214005050C14604950123059371E715B0BDE8F08FAE
S2140050600FB400B583B004AA52F8041B019204489A
S214005070FFF77AFD03B05DF804EB04B0704700BF9D
S2140050800C8300000EB400B588B088B101904FF0D4
S214005090FF33029301AB0393084B04930AAA0792CB
S2140050A003A80999FFF760FD0022019B1A7000E033
S2140050B0002008B05DF804EB03B07047014B000019
S2140050C00CB410B588B0A8B1A9B14C1E01900294DA
S2140050D001AB03930B4B04930BAA079203A80A9900
S2140050E0FFF742FD0022019B1A70A04234BF014622
S2140050F0214600E00021084608B0BDE8104002B096
S214005100704700BF014B000070B5084B9B6B63B146
S21400511000242546054EA35913B132195068984706
S21400512001350834B36BAB42F5D870BD0810FF1FCD
S21400513010B40446E0B1114B1B685BB100200F4A67
S214005140013052F83030002BFAD1072803D14FF047
S214005150FF300FE00020094B43F8304003EBC0025D
S21400516051609B6B984205D3421C044B9A6301E046
S2140051704FF0FF305DF8044B704700BF0810FF1F6C
S214005180062805D80023044A42F83030184600E0C6
S214005190FF2040B2704700BF0810FF1F70B50646DC
S2140051A00D4614463AB13046294600F00FFD083643
S2140051B00835013CF7D170BD38B520F47F6424F083
S2140051C00F04C0F30B000144C1F30B05090B002DBF
S2140051D00CBF0D464D1C35B1204600F0EFFC04F523
S2140051E08054013DF8D138BD2DE9F04782B0044621
S2140051F088461746002A43D010F0070623D020F032
S214005200070AC6F10809914528BF91466846FF215E
S2140052100822FEF749F909EB0605AE4209D23346E5
S214005220C6EB0806F45C0DF803400133AB42F9D137
S214005230C844504669460122FFF7B0FFB7EB09079E
S2140052401ED00AF1080407F00705FF08204641466D
S2140052503A46FFF7A3FF9DB1FF00B8446846FF211A
S2140052600822FEF721F9002318F803200DF8032082
S2140052700133AB42F8D1E01969460122FFF78EFFF1
S21400528002B0BDE8F08700BF2DE9F04186B00446C5
S214005290884600F130060C23029300686B440093A6
S2140052A002AB019331464FF40A720023FDF732FD3C
S2140052B00546A769FEF76AFA01463846FEF7C0FAC1
S2140052C06369984280F09D80EF2D40F39D80676B68
S2140052D0606A01F071F9874240F0988094F83230A5
S2140052E0062B40F0958004F14C0004F11C010622C8
S2140052F0FEF7EAF8002840F08D8004F58E704949E4
S2140053000422FEF7E1F8002840F08680404620217F
S214005310FEF7D2F8236CC8F8003004F59073A36249
S2140053206B1E1E44E66253E04A780B78013B3A2B2C
S2140053304ED8DFE803F0254D2C4D4D4D4D4D4D4DCF
S2140053404D4D4D4D4D4D4D4D4D4D4D4D4D4D4D4D88
S2140053504D4D4D4D4D4D4D4D4D4D4D4D4D4D4D4D78
S2140053604D4D4D4D4D4D4D4D394D331E4D4D4D40D2
S2140053704700042A2CD1D1F80230C8F80C3027E0B8
S214005380042A25D1D1F80230C8F8043020E0032AD8
S2140053901ED9D1F80230C8F8083019E0012A17D112
S2140053A08B7888F81C3013E0042A11D1D1F802302B
S2140053B0C8F818300CE0042A0AD1D1F80230C8F830
S2140053C0103005E0042A04BFD1F80230C8F81430C3
S2140053D0A36AE66A5A1C96421FD9304601E0834209
S2140053E01BD0194613F8012B002AF8D0FF2A14D038
S2140053F04B7802330B449E420FD3A362002993D10D
S2140054000BE04FF0FF3508E0002506E0002504E03D
S214005410002502E0002500E00025284606B0BDE88D
S214005420F08100BF1C83000070B504461546026874
S21400543000F50C76B61AA81C86420ED3501C2060C7
S21400544011702268511C21601570206819462A4682
S214005450FDF7CEFF23681D44256070BD2DE9F0439F
S2140054608BB0044600F1280500F1300630464FF4B4
S2140054700A71FEF721F8012384F8303084F83130C1
S214005480062784F83270606A01F096F8606380231D
S214005490638704F11C0804F14C0041463A46FDF7C8
S2140054A0A7FF04F58E7059490422FDF7A1FF04F505
S2140054B09073A3622379023B072B00F2A280DFE8F9
S2140054C003F01804A02B34A01E3D284632210422E7
S2140054D004F52073FFF7A8FF28463621042204F5BA
S2140054E02373FFF7A1FF03238DF80F304FF0FF392A
S2140054F02CE001238DF80F304FF0FF3926E02846C8
S2140055003221042204F51673FFF78EFF03238DF86D
S2140055100F304FF0FF3919E0D4F86C92D4F86032AF
S214005520E36303238DF80F3010E003238DF80F306C
S214005530D4F86032E3634FF0FF3907E0D4F86C929A
S214005540D4F86032E36307238DF80F302846352100
S21400555001220DF10F03FFF767FF9DF80F3003F0F0
S214005560FD03012B12D1FEF711F9A061D4F85C32CD
S21400557033B128463321042204F51773FFF754FF8E
S214005580284637210522224BFFF74EFF4FF40A70BC
S21400559001F00CF80AAB23F80E0D2846392102223A
S2140055A0FFF742FF94F831300AAF07F8183D0DF1C7
S2140055B0110041460622FDF71BFF28463D21072223
S2140055C03B46FFF731FFA36A5A1CA262FF221A70FD
S2140055D007AD28460C21FDF76FFF0123ADF81C3000
S2140055E04FF48643ADF81E30CDF824902068A26AAA
S2140055F000950C2301933146921B0023FDF7F2FC25
S21400560001E04FF0FF300BB0BDE8F0831C830000D4
S2140056108804FF1F10B504460171082976D8DFE814
S21400562001F06C050E2C134257053700D0F8A00287
S2140056300021FCF731FF636A0133636210BDFFF798
S2140056400DFF2823636110BD05230373836903617F
S214005650D0F87002B0F1FF3F03D14FF0FF33A360E4
S21400566010BD00F0A9FF4FF47A7303FB00F0284A40
S214005670A2FB00135B09A36010BDFFF7EFFE01233A
S2140056802373A369236128236361A023A36010BD4D
S214005690FFF7E4FE01232373A36923615023A3606D
S2140056A02823636110BDFFF7D9FE06232373D4F8C1
S2140056B0740200F081FF4FF47A7303FB00F0144A83
S2140056C0A2FB00135B09A3604FF41673636110BD61
S2140056D0FFF7C4FE01232373D4F8780200F06CFFB2
S2140056E04FF47A7303FB00F0094AA2FB00135B0930
S2140056F0A3604FF41673636110BD00234371006806
S214005700FDF7E8FAD4F8A402FFF73AFD10BD00BF93
S2140057101F85EB51F0B585B00F460646002859D0D8
S214005720304B5B7923B12F4BD3F8A032834254D051
S21400573001A80C21FDF7C0FE0125ADF804504FF47A
S2140057408843ADF80630002403943046FDF722F86F
S2140057500290284602212246FDF754FB214B186092
S214005760B0F1FF3F3BD001A90C22FDF785FD50BBF1
S2140057701C4C1D482146FFF7DBFCC4F8A402B0F120
S214005780FF3F20D0C4F8A062304604F11C01062278
S214005790FCF704FF77B13B68C4F85832786800F02D
S2140057A00BFFC4F85C02D4F85832002B14BF072154
S2140057B0294600E001210B4C2046FFF72BFF012372
S2140057C0637120460BE0074B1868FDF783FA4FF02D
S2140057D0FF3004E04FF0FF3001E04FF0FF3005B03F
S2140057E0F0BD00BF4410FF1F0958000010B5044666
S2140057F040B14379012B05D10921FFF70BFF204665
S21400580000F002F810BD00BF70B58EB004460379F4
S214005810013B082B00F22481DFE813F00900180092
S214005820780039006F006F00600078000F010221D9
S214005830FFF7F0FED4F8AC32002B00F011812046C2
S214005840D4F8A012D4F8B022984709E106A9FFF7C9
S2140058501BFDB0F1FF3F04D120460121FFF7DAFE21
S214005860FEE0002840F3FC809DF83430022B40F028
S214005870F78004F5207506AE0FCE0FC596E80F002C
S21400588085E80F0020460321FFF7C4FEE8E0D0F8C5
S214005890A002FCF777FEE8B10C230293214651F8EC
S2140058A0300B6B44009302AB01934FF40A72002353
S2140058B0FDF730FA2569FDF769FF01462846FDF732
S2140058C0BFFFA368984240F2CB802046217BFFF7BB
S2140058D0A1FEC5E02046FFF789FFC1E00821FFF7DB
S2140058E099FED4F8AC32002B00F0BA802046D4F8EB
S2140058F0A012D4F8B0229847B2E0D0F8A002FCF785
S21400590041FE18B92046FFF771FFA9E02569FDF7AB
S2140059103DFF01462846FDF793FFA368984280F0B6
S2140059208780204606A9FFF7AFFCB0F1FF3F03D102
S2140059302046FFF793FD93E0002840F391809DF802
S2140059403430052B6DD1069B002B00F08980099B17
S214005950002B00F085800C9D002D00F08180A3694F
S2140059602361B5F1FF3F04D14FF0FF330A930B9349
S2140059702AE0284600F020FEB32803D84FF0344330
S2140059800C9307E00C9800F017FE364B984284BF45
S214005990354B0C930A9B23B10B9B13B10C9B9D427A
S2140059A012D00C9800F008FE400800F005FE0A90A1
S2140059B00C9800F001FE05460C9800F0FDFDA5EBE6
S2140059C0D00000F0F9FD0B9004F5187506AE0FCE6A
S2140059D00FC596E80F0085E80F00D4F8A002D4F8AB
S2140059E06012FCF759FDD4F8A002D4F86412FCF754
S2140059F093FDD4F8A002D4F86812FCF79BFDD4F807
S214005A00A002FCF7C5FD20460421FFF703FED4F8EC
S214005A10A8322BB32046D4F8A012D4F8B422984764
S214005A201EE0062B1CD120460121FFF7F3FD17E0F0
S214005A302046217BFFF7EEFD12E0D0F860320BB176
S214005A40FFF70CFDD4F8A002FCF79CFD20B1D4F8BB
S214005A50A0020021FCF720FD20460021FFF7DAFD1A
S214005A600EB070BD9BC420000020C49B08B14079D6
S214005A7070470020704700BF30B40C4641B138B1C3
S214005A8000F518750FCD0FC495E8070084E80700E9
S214005A9030BC704718B1C0F8A812C0F8B4227047DE
S214005AA018B1C0F8AC12C0F8B0227047024A4FF0E6
S214005AB0E023C3F80C2D70470400FA0508B5FAF782
S214005AC02CFD08BD08B5FAF725FD08BD41F24403D4
S214005AD0044AD358C3F3036301330348B0FBF3F01F
S214005AE0704700BF00700440C0D40100704700BF7C
S214005AF0134941F23803CA5842F46062CA50114A48
S214005B004FF48063136453649364D364A2F5005225
S214005B10136353639363D3631364536453611367CC
S214005B2002F5805240F223401060536041F22C038D
S214005B30CA5842F00102CA500022034B1A6070474E
S214005B400070044000B0044000D00040704700BF22
S214005B50F8B507460E461546FFF7B0FF164C2378F5
S214005B6013F0800FFBD0144B30221A70DF71C6F38F
S214005B7007429A71C6F307225A71F6B21E71EA7886
S214005B80DA72AA789A726A785A722A781A72072F84
S214005B9007D1EA79DA73AA799A736A795A732A79F5
S214005BA01A738022044B1A701A46137813F0800F6B
S214005BB0FBD0FFF787FFF8BD0000024008B501469E
S214005BC009200022FFF7C4FF08BD00BF08B5034642
S214005BD00A4607201946FFF7BBFF08BD08B5024B6B
S214005BE01878FBF7AFFF08BD04ED00E030B4184BA3
S214005BF0184A53F82040944222D043F820201FE051
S214005C009B0003F1604303F56143D3F8804100F045
S214005C101F02012505FA02F21443C3F880411C68EE
S214005C2022431A60072928BF0721C1F1070109018D
S214005C30C9B200F1604000F5614080F8001303E04F
